:100000000C94C9000C94E6000C94E6000C94E600F5
:100010000C94E6000C94E6000C94E6000C944B0162
:100020000C94E6000C94E6000C94E6000C94E600B8
:100030000C94E6000C949B090C94E6000C94E600EA
:100040000C94E6000C94E6000C94E6000C94E60098
:100050000C94E6006E616E00696E660000407A10D6
:10006000F35A00A0724E18090010A5D4E80000E869
:100070007648170000E40B54020000CA9A3B0000C7
:1000800000E1F505000080969800000040420F0056
:100090000000A08601000000102700000000E80317
:1000A000000000006400000000000A0000000000E2
:1000B0000100000000002C76D888DC674F0823DFA1
:1000C000C1DFAE59E1B1B796E5E3E453C63AE65174
:1000D000997696E8E6C28426EB898C9B62ED407C9B
:1000E0006FFCEFBC9C9F40F2BAA56FA5F490055A37
:1000F0002AF75C936B6CF9676DC11BFCE0E40D475C
:10010000FEF520E6B500D0ED902E0300943577057E
:100110000080841E080000204E0A000000C80C3336
:100120003333330F986E12831141EF8D2114893BC5
:10013000E65516CFFEE6DB18D1844B381BF77C1D45
:10014000901DA4BBE424203284725E228100C9F198
:1001500024ECA1E53D27494E46494E4954594E41AC
:100160004ECDCCCC3D0AD7233C17B7D13877CC2B1A
:10017000329595E6241FB14F0A000020410000C8C7
:100180004200401C4620BCBE4CCA1B0E5AAEC59D48
:10019000740011241FBECFE5D8E0DEBFCDBF10E054
:1001A000A0E6B0E0E4EDF6E202C005900D92A63FB5
:1001B000B107D9F713E0A6EFB0E001C01D92A23756
:1001C000B107E1F70E947F010C9468130C940000C2
:1001D0002091F6003091F7002115310511F4E0E48B
:1001E00014C08091FA009091FB00FC01E15EFE4F8B
:1001F000E081215030403093F7002093F6000196C3
:1002000091709093FB008093FA008E2F0895482FF1
:100210002091F6003091F70081E02F3F3807A1F0E0
:100220008091F8009091F900FC01E15EFE4F40835F
:100230002F5F3F4F3093F7002093F60001969170A7
:100240009093F9008093F800089520E030E08091C9
:10025000F6009091F7008F5F914011F421E030E0BB
:10026000C901089520E030E08091F6009091F700F8
:10027000892B11F421E030E0C9010895A79AAF9AC3
:100280008EB58A608EBD80E09AEF9BBD8ABD89B72E
:10029000806189BF08951F920F920FB60F921124AB
:1002A0002F933F938F939F939F9920C09F9BFECF47
:1002B0002091600030916100223031056CF481E0C2
:1002C00090E09093FD008093FC002F5F3F4F3093B0
:1002D0006100209360000AC081E090E0909361008B
:1002E000809360009093FD008093FC009F918F911C
:1002F0003F912F910F900FBE0F901F9018950F9365
:100300001F9300E010E9C8010197F1F70E94AB01CB
:100310000E943E010E9491098CE00E949A01C8014E
:100320000197F1F778940E94080680E090E01F9111
:100330000F91089518BA98B3982B98BBD998D8986C
:10034000DA98DA9A82E08A95F1F7DA9883E397E00F
:100350000197F1F708950F931F938FEF87BB87E005
:100360008ABB03E317E0C8010197F1F781E00E941F
:100370009A01C8010197F1F78FE00E949A01C80124
:100380000197F1F788E30E949A011F910F91089558
:10039000FC01D89AD998DA9863E377E032E040E735
:1003A00051E00EC0CB010197F1F718BA28BBDA9AD9
:1003B000832F8A95F1F7DA98CA010197F1F7319600
:1003C0002081222379F70895D898D99818BAC79A26
:1003D00098B3982B98BBDA9884E0982F9A95F1F708
:1003E000DA9A8A95F1F7DA9883E397E00197F1F7C3
:1003F00008950F931F938B010E94E401C8010E948E
:10040000C8011F910F910895262F833041F0843049
:1004100041F0823011F490E405C090E003C090E117
:1004200001C090E52150822F890FBA010E94F90185
:100430000895BF92CF92DF92EF92FF920F931F9396
:10044000DF93CF9300D0CDB7DEB7B82E6A0180918D
:100450006200909163009A8389838B017E010894E6
:10046000E11CF11C07C08B2D602FA7010E94040224
:100470000F5F1F4FC016D106B4F70F900F90CF91AA
:10048000DF911F910F91FF90EF90DF90CF90BF9081
:10049000089510921E01089520E030E061507040F0
:1004A00040E206C0FC01E20FF31F40832F5F3F4F85
:1004B00026173707BCF30895FB01E80FF91F3197A2
:1004C00010820895CF92DF92EF92FF920F931F93C5
:1004D000CF93DF93FC016B018A0164E670E00E9418
:1004E000260F7B018CE99FEF689FE001699FD00D8B
:1004F000789FD00D1124C00FD11FCE0FDF1FCC333A
:10050000D1056CF0CE016CE370E00E94260FE60E80
:10051000F71ECE016CE370E00E94260FEC01B701DC
:100520006C0D7D1D6831710514F06851704084E6D2
:1005300090E0689F9001699F300D789F300D1124E5
:100540002C0F3D1FC901DF91CF911F910F91FF909B
:10055000EF90DF90CF9008950E94E8008C3211F068
:100560008A32D1F70895CF92DF92EF92FF920F93E4
:100570001F93DF93CF930F92CDB7DEB78C017B0132
:100580000E94E80091E0C92ED12C90E2998317C017
:10059000803499F0EC14FD0434F0F80181938F015C
:1005A0000894C11CD11C8D3019F4FDE0F98305C0FD
:1005B0008A3019F489818D3031F00E94E8008C3244
:1005C00011F08A3229F70F90CF91DF911F910F918F
:1005D000FF90EF90DF90CF90089587E693E065E07D
:1005E00070E00E94B30282E080931E0108950E9491
:1005F000E8008432E1F781E080931E010895DF93E3
:10060000CF9300D000D00F92CDB7DEB780913F03DB
:1006100090914003A0914103B091420389839A8352
:10062000AB83BC831D82CE0101960E94880F65E0DA
:1006300070E04EE150E00E9462029C0164E670E0CE
:100640000E94260F70934B0360934A03C90164E62E
:1006500070E00E94260F9093640380936303205BF5
:1006600034401CF481E49DE402C080E59DE4909355
:1006700022038093210380914A0390914B030097BA
:1006800019F48CE090E004C08D3091052CF00C97AB
:1006900090934B0380934A030F900F900F900F900D
:1006A0000F90CF91DF910895AF92BF92CF92DF92DA
:1006B000EF92FF920F931F9386E593E00E94840FC1
:1006C0005B016C0120E030E048EC52E40E94AC0D8C
:1006D0000E94820E0E94140E7B017093FF006093B3
:1006E000FE0084E690E0E89EB001E99E700DF89E61
:1006F000700D1124882777FD8095982F0E94470E52
:100700009B01AC01C601B5010E94470D5B016C0164
:1007100060930001709301018093020190930301A3
:100720000027F7FC0095102FC801B7010E94470E63
:100730007B018C01C601B50120E030E040E752E4C6
:100740000E94AC0D9B01AC01C801B7010E94480D8D
:1007500060930E0170930F0180931001909311012B
:100760001F910F91FF90EF90DF90CF90BF90AF90CF
:100770000895AF92BF92CF92DF92EF92FF920F93C4
:100780001F938CE493E00E94840F5B016C0120E0D6
:1007900030E048EC52E40E94AC0D0E94820E0E94B0
:1007A000140E7B01709305016093040184E690E0D0
:1007B000E89EB001E99E700DF89E700D1124882707
:1007C00077FD8095982F0E94470E9B01AC01C601D2
:1007D000B5010E94470D5B016C01609306017093A7
:1007E000070180930801909309010027F7FC009509
:1007F000102FC801B7010E94470E7B018C01C60172
:10080000B50120E030E040E752E40E94AC0D9B01CE
:10081000AC01C801B7010E94480D60930A017093B2
:100820000B0180930C0190930D011F910F91FF908C
:10083000EF90DF90CF90BF90AF900895EF92FF922E
:100840000F931F93DF93CF93CDB7DEB727970FB6E4
:10085000F894DEBF0FBECDBF109249038FE393E043
:100860006AE070E00E94B3021092620381E693E0B6
:1008700062E070E00E94B302109255038CE493E0B2
:1008800069E070E00E94B3020E94B903109266030F
:1008900085E693E062E070E00E94B302109260038C
:1008A00086E593E06AE070E00E94B3020E94540380
:1008B00080E2809337031092380387E393E062E08D
:1008C00070E00E94B30224E2E22E23E0F22EF70150
:1008D00080E2819393E0E233F907D9F710828F0128
:1008E0000E501040C80165E070E00E94B302C801DC
:1008F0000E94840F60931A0170931B0180931C0166
:1009000090931D0180E2F70181937F01F2E3EF16DE
:10091000F3E0FF06C1F7C7010E9765E070E00E94A3
:10092000B302C7010E970E94840F60931601709363
:10093000170180931801909319011F82CE0101962F
:1009400066E070E00E94B30227960FB6F894DEBF0F
:100950000FBECDBFCF91DF911F910F91FF90EF9010
:100960000895EF92FF920F931F93DF93CF9300D0E0
:100970000F92CDB7DEB71B82109249038FE393E04D
:100980006AE070E00E94B302109255038CE493E099
:1009900069E070E00E94B3020E94B90310926603FE
:1009A00085E693E061E070E00E94B302109260037C
:1009B00086E593E06AE070E00E94B3020E9454036F
:1009C0001092380387E393E061E070E00E94B30285
:1009D0000E94AC0280E289838A838E010F5F1F4FE1
:1009E000C80162E070E00E94B302C8010E94880F53
:1009F000909313018093120134E2E32E33E0F32E3F
:100A0000F70180E2819393E0E233F907D9F710828E
:100A10008F010E501040C80164E070E00E94B302E4
:100A2000C8010E94840F0E94140E709315016093F8
:100A3000140180E2F80181938F01F3E002331F0774
:100A4000C9F710923203C8010E9765E070E00E946A
:100A5000B302C8010E970E94840F60933303709312
:100A6000340380933503909336038FE193E061E084
:100A700070E00E94B30280E2F70181937F01F2E30C
:100A8000EF16F3E0FF06C1F7C7010E9764E070E0D0
:100A90000E94B302C7010E970E94840F609339032E
:100AA00070933A0380933B0390933C038DE393E070
:100AB00061E070E00E94B302C7010E9764E070E04D
:100AC0000E94B302C7010E9765E070E00E94B30276
:100AD0000F900F900F90CF91DF911F910F91FF908A
:100AE000EF900895809160009091610081309105B0
:100AF00099F58091FC009091FD00892BE1F081E057
:100B000090E065E070E040E150E00E94190282E070
:100B100090E065E070E040E150E00E94190284E05E
:100B200090E061E070E040E150E00E941902109214
:100B3000FD001092FC000E94BC070E946A0781E041
:100B400090E064E070E00E94E30889E090E064E0F7
:100B500070E00E94250734C0029791F58091FC0057
:100B60009091FD00892BE1F081E090E065E070E07C
:100B700040E150E00E94190282E090E065E070E000
:100B800040E150E00E94190284E090E061E070E0F2
:100B900040E150E00E9419021092FD001092FC000A
:100BA0000E94CD060E94750681E090E064E070E04E
:100BB0000E94620889E090E064E070E00E940E0804
:100BC00085E090E063E070E00E94250680E190E01F
:100BD00063E070E00E94BA0810921E01089587E653
:100BE00093E064E670E00E948910009719F40E9477
:100BF0001E040AC087E693E06AE670E00E9489104E
:100C0000009711F40E94B10486E080931E010895BC
:100C100010921E010E94750910926C0380911E01B2
:100C2000813051F0813028F0823049F08630C1F7B0
:100C300009C00E94F702F2CF0E94ED02EFCF0E949E
:100C4000EF05ECCF0E947205E9CFEF92FF920F9370
:100C50001F93DF93CF93CDB7DEB72F970FB6F894DE
:100C6000DEBF0FBECDBFE82EF62E8DB79EB708971C
:100C70000FB6F8949EBF0FBE8DBFEDB7FEB731968D
:100C80008E010F5F1F4FADB7BEB712961C930E9328
:100C9000119780E790E09383828380911A0190916D
:100CA0001B01A0911C01B0911D0184839583A68333
:100CB000B7830E94D8108DB79EB708960FB6F894E8
:100CC0009EBF0FBE8DBF8F2D6E2DA8010E94040206
:100CD0002F960FB6F894DEBF0FBECDBFCF91DF9138
:100CE0001F910F91FF90EF9008950F931F93DF9343
:100CF000CF93CDB7DEB761970FB6F894DEBF0FBEC6
:100D0000CDBF8DB79EB70E970FB6F8949EBF0FBE9E
:100D10008DBFEDB7FEB731968E010F5F1F4FADB798
:100D2000BEB712961C930E93119785E790E09383BC
:100D300082838091FE009091FF009583848380914F
:100D4000EC00868317828091000190910101A091AF
:100D50000201B091030180879187A287B38787E35F
:100D600093E0958784870E94D8108DB79EB70E9622
:100D70000FB6F8949EBF0FBE8DBF82E065E0A8015C
:100D80000E94040261960FB6F894DEBF0FBECDBF7D
:100D9000CF91DF911F910F9108950F931F93DF93D0
:100DA000CF93CDB7DEB761970FB6F894DEBF0FBE15
:100DB000CDBF8DB79EB70E970FB6F8949EBF0FBEEE
:100DC0008DBFEDB7FEB731968E010F5F1F4FADB7E8
:100DD000BEB712961C930E93119785E790E093830C
:100DE0008283809104019091050195838483809191
:100DF000EC00868317828091060190910701A091F3
:100E00000801B091090180879187A287B38785E6A1
:100E100093E0958784870E94D8108DB79EB70E9671
:100E20000FB6F8949EBF0FBE8DBF81E065E0A801AC
:100E30000E94040261960FB6F894DEBF0FBECDBFCC
:100E4000CF91DF911F910F910895EF92FF920F9331
:100E50001F93DF93CF93CDB7DEB727970FB6F894E4
:100E6000DEBF0FBECDBFE82EF62E00D000D000D0E2
:100E7000EDB7FEB731968E010F5F1F4FADB7BEB70E
:100E800012961C930E93119783E890E093838283CC
:100E90008091120190911301958384830E94D81050
:100EA0008DB79EB706960FB6F8949EBF0FBE8DBF46
:100EB0008F2D6E2DA8010E94040227960FB6F8947C
:100EC000DEBF0FBECDBFCF91DF911F910F91FF907D
:100ED000EF9008950F931F93DF93CF93CDB7DEB7B5
:100EE0002C970FB6F894DEBF0FBECDBF8DB79EB75F
:100EF0000C970FB6F8949EBF0FBE8DBFEDB7FEB72F
:100F000031968E010F5F1F4FADB7BEB712961C937F
:100F10000E9311978BE890E09383828380910E016A
:100F200090910F01A0911001B091110184839583DC
:100F3000A683B7838091EC008087118687E393E0D6
:100F4000938782870E94D8108DB79EB70C960FB6F4
:100F5000F8949EBF0FBE8DBF82E065E0A8010E949D
:100F600004022C960FB6F894DEBF0FBECDBFCF9112
:100F7000DF911F910F9108950F931F93DF93CF93EC
:100F8000CDB7DEB72C970FB6F894DEBF0FBECDBF3E
:100F90008DB79EB70C970FB6F8949EBF0FBE8DBF4E
:100FA000EDB7FEB731968E010F5F1F4FADB7BEB7DD
:100FB00012961C930E9311978BE890E09383828393
:100FC00080910A0190910B01A0910C01B0910D014B
:100FD00084839583A683B7838091EC0080871186F4
:100FE00085E693E0938782870E94D8108DB79EB7DD
:100FF0000C960FB6F8949EBF0FBE8DBF81E065E0E2
:10100000A8010E9404022C960FB6F894DEBF0FBE12
:10101000CDBFCF91DF911F910F910895EF92FF9275
:101020000F931F93DF93CF93CDB7DEB72A970FB6F9
:10103000F894DEBF0FBECDBFE82EF62E8DB79EB75B
:101040000A970FB6F8949EBF0FBE8DBFEDB7FEB7DF
:1010500031968E010F5F1F4FADB7BEB712961C932E
:101060000E93119785E990E09383828382EF90E05D
:10107000958384838091330390913403A091350349
:10108000B091360386839783A087B1870E94D810DA
:101090008DB79EB70A960FB6F8949EBF0FBE8DBF50
:1010A0008F2D6E2DA8010E9404022A960FB6F89487
:1010B000DEBF0FBECDBFCF91DF911F910F91FF908B
:1010C000EF900895EF92FF920F931F93DF93CF93CA
:1010D000CDB7DEB72A970FB6F894DEBF0FBECDBFEF
:1010E000E82EF62E8DB79EB70C970FB6F8949EBFDC
:1010F0000FBE8DBFEDB7FEB731968E010F5F1F4F4C
:10110000ADB7BEB712961C930E9311978EE990E07F
:10111000938382838DEE90E0958384838091160182
:1011200090911701A0911801B091190186839783BE
:10113000A087B1878091EC00828713860E94D81027
:101140008DB79EB70C960FB6F8949EBF0FBE8DBF9D
:101150008F2D6E2DA8010E9404022A960FB6F894D6
:10116000DEBF0FBECDBFCF91DF911F910F91FF90DA
:10117000EF9008950F931F93DF93CF9300D0CDB7D7
:10118000DEB7082F162F81E693E068EA70E00E9430
:1011900089109C01CE010196232B19F46AEA70E0B4
:1011A00002C06CEA70E00E949210812F602FAE01A5
:1011B0004F5F5F4F0E9404020F900F90CF91DF911D
:1011C0001F910F9108950F931F93DF93CF9300D03A
:1011D00000D000D0CDB7DEB7082F162F0E94FF0237
:1011E0001E8240914A0350914B032091630330913A
:1011F00064034A3051055CF5CE01019661E273E06B
:101200002A30310594F4ADB7BEB71A970FB6F894EB
:10121000BEBF0FBEADBFEDB7FEB7319612969C9321
:101220008E9311978EEA90E03CC0ADB7BEB71A9787
:101230000FB6F894BEBF0FBEADBFEDB7FEB7319687
:1012400012969C938E93119788EB90E02AC0CE0162
:10125000019661E273E02A30310594F4ADB7BEB770
:101260001A970FB6F894BEBF0FBEADBFEDB7FEB76D
:10127000319612969C938E93119781EC90E011C059
:10128000ADB7BEB71A970FB6F894BEBF0FBEADBFCD
:10129000EDB7FEB7319612969C938E9311978AEC18
:1012A00090E09383828355834483378326837187B9
:1012B00060870E94D810EDB7FEB73A960FB6F89443
:1012C000FEBF0FBEEDBF812F602FAE014F5F5F4F9E
:1012D0000E94040226960FB6F894DEBF0FBECDBF63
:1012E000CF91DF911F910F91089581E00E949A01A3
:1012F00081E061E042ED50E00E94040282E061E0A2
:1013000047ED50E00E94040283E061E042EE50E0CD
:101310000E94040283E06CE047EE50E00E94040269
:10132000089510BC8FE589B98AB188698AB980B5FA
:10133000866880BD08951F920F920FB60F921124F8
:101340002F933F934F935F936F937F938F939F93CD
:10135000AF93BF93EF93FF938CB10E940701FF916E
:10136000EF91BF91AF919F918F917F916F915F911D
:101370004F913F912F910F900FBE0F901F90189596
:10138000A1E1B0E0E6ECF9E00C94390F3C017F8775
:101390006E876A01FC0117821682838181FD03C07A
:1013A0006FEF7FEF6FC39E012F5F3F4F398B288B0D
:1013B000F3012381EE85FF8523FD859123FF819134
:1013C000FF87EE87882309F45AC3853251F4EE85EE
:1013D000FF8523FD859123FF8191FF87EE8785326D
:1013E00029F490E0B3010E94AC10E2CF982F10E0F6
:1013F000882499241032B0F49B3269F09C3228F48E
:10140000903251F0933271F40BC09D3239F0903329
:1014100049F4116028C01260146025C0186023C010
:10142000106121C017FD2AC0892F80538A3078F4BB
:1014300016FF06C0FAE09F9E902C1124980E13C050
:101440003AE0839E802C1124880E10620CC09E32DC
:1014500021F416FD14C3106406C09C3611F4106804
:1014600002C0983659F4EE85FF8523FD959123FF40
:101470009191FF87EE87992309F0BCCF892F85547E
:10148000833020F4812F8061905E07C0892F8556BC
:10149000833008F09FC1812F8F7E86FD02C076E0E9
:1014A000972E6FE3F62EF822953619F4F0E4FF2A12
:1014B00007C0963619F420E8F22A02C091109A94D7
:1014C000F7FE0AC03BE3391518F45CE3B52E02C001
:1014D000B92CB39427E009C047E0491520F4BB2498
:1014E00047E0942EF7CF292DBB24C60104969D8793
:1014F0008C87F6016081718182819381AE014F5F9B
:101500005F4F0B2D0E94A60F6C010981202E332402
:1015100000FF04C003FD02C01DE209C0F1FE02C0CD
:101520001BE205C0F2FC02C010E001C010E2C101E4
:101530008C709070892BB9F1112311F483E001C0F4
:1015400084E0881510F088240AC0881AF3FC07C0CC
:1015500080E290E0B3010E94AC108A94C9F7112395
:1015600029F0812F90E0B3010E94AC1023FE03C04C
:1015700004E510E00EC008E510E00BC0E114F10432
:1015800009F0805290E0B3010E94AC100F5F1F4F32
:1015900005C0EF2CFF24F0E1EF22FF24F801849135
:1015A000882361F714C1F7FE12C0BC0C24FE04C0EE
:1015B0008A81813309F4BA941B141CF0BB24B394C0
:1015C0002DC0F8E0FB1550F538E0B32E27C0F6FC2F
:1015D00025C0892D90E08C159D054CF02CEFC2168E
:1015E0002FEFD20624F030E8F32A01C09A94992014
:1015F00049F0E2E0F0E0EC0FFD1FE90DF11D808104
:101600008033A1F3F7FE0AC0B92CB394892D90E082
:10161000C816D90614F0992401C09C18F7FC03C021
:1016200025E030E009C01C141D041CF021E030E06E
:1016300003C096012F5F3F4F112311F02F5F3F4FE3
:10164000992029F0892D90E00196280F391F882DC7
:1016500090E02817390714F0882401C0821A4F2C13
:101660005524C20189709070892B39F008C080E23E
:1016700090E0B3010E94AC108A948820C1F7112336
:1016800029F0812F90E0B3010E94AC1043FE07C007
:1016900008C080E390E0B3010E94AC108A948820D7
:1016A000C1F7F7FE46C08601D7FE02C000E010E099
:1016B00076010894E11CF11CE01AF10A41E050E0C7
:1016C0004C0F5D1FE40EF51E26014B185108892DA5
:1016D00090E0AA24BB24A81AB90A5FEF0F3F1507B0
:1016E00029F48EE290E0B3010E94AC10C016D1063E
:1016F00034F0401651061CF4F701808101C080E3EC
:10170000015010400894E11CF11C0A151B052CF037
:1017100090E0B3010E94AC10E0CF0C151D0539F428
:101720009A81963318F4953311F424FE81E390E006
:101730004BC08A81813309F00F7E90E0B3010E9493
:10174000AC109920A1F08EE290E0B3010E94AC10A1
:1017500012E0E1E0F0E0EC0FFD1FE10FF11D1F5F73
:10176000808190E0B3010E94AC109A9491F744FC00
:1017700003C085E690E002C085E490E0B3010E94DA
:10178000AC10D7FC05C0C114D10441F404FF06C05D
:10179000D094C194D108D3948DE201C08BE290E043
:1017A000B3010E94AC1080E305C08F5F26EF3FEFCE
:1017B000C20ED31E3AE0C316D104BCF790E0B301C9
:1017C0000E94AC10C601C096B3010E94AC10CC843C
:1017D000DD8452C1933631F0933799F0933509F097
:1017E00059C023C0F601808189835E010894A11C41
:1017F000B11C22E030E0C20ED31E21E0E22EF12C1B
:1018000012C0F601A080B18016FD03C06FEF7FEF1C
:1018100002C0692D70E022E030E0C20ED31EC50187
:101820000E9499107C011F7713C0F601A080B1803F
:1018300016FD03C06FEF7FEF02C0692D70E022E05C
:1018400030E0C20ED31EC5010E947E107C011068DC
:1018500013FF07C01BC080E290E0B3010E94AC10F0
:101860008A94882D90E0E816F906A8F30FC0F501D8
:1018700017FD859117FF81915F0190E0B3010E94F0
:10188000AC1081108A940894E108F108E114F10485
:1018900071F7F2C0943611F0993689F517FF08C038
:1018A000F601208131814281538184E090E00AC0B9
:1018B000F601808191819C01442737FD4095542F8A
:1018C00082E090E0C80ED91E9FE6F92EF12257FF64
:1018D00009C050954095309521953F4F4F4F5F4F30
:1018E00090E8F92ACA01B901AE014F5F5F4F2AE0C3
:1018F00030E00E94FC10E82EE889EE1A41C09537CE
:1019000021F41F7E2AE030E01CC0197F9F3661F071
:10191000903720F4983509F0B2C00FC0903739F0F5
:10192000983709F0ACC004C028E030E00AC010616C
:1019300014FD146020E130E004C014FD166020E1C5
:1019400032E017FF08C0F6016081718182819381C6
:1019500044E050E008C0F60180819181BC0180E044
:1019600090E042E050E0C40ED51EAE014F5F5F4FE5
:101970000E94FC10E82E5889E51A8FE7F82EF12214
:10198000F6FE0BC08EEFF822E91438F4F4FE07C01F
:10199000F2FC05C09FEEF92202C01E2D01C0192DD8
:1019A000F4FE0DC0FE01EE0DF11D8081803319F4AF
:1019B000E9EEFE2208C01F5FF2FE05C003C08F2DB6
:1019C000867809F01F5F0F2DF3FC14C0F0FE0FC0E6
:1019D000181510F09E2C0BC09E2C980C911A182DE7
:1019E00006C080E290E0B3010E94AC101F5F1815A2
:1019F000C0F304C0181510F4811A01C0882404FF34
:101A00000FC080E390E0B3010E94AC1002FF1DC044
:101A100001FD03C088E790E00EC088E590E00BC0B0
:101A2000802F867891F001FF02C08BE201C080E236
:101A3000F7FC8DE290E0B3010E94AC1006C080E399
:101A400090E0B3010E94AC109A94E914C0F3EA94B8
:101A5000E1E0F0E0EC0FFD1FEE0DF11D808190E064
:101A6000B3010E94AC10EE2091F706C080E290E036
:101A7000B3010E94AC108A948820C1F799CCF3017D
:101A800066817781CB016196E2E10C94550F505845
:101A9000BB27AA270ED089C17AD130F07FD120F0A0
:101AA00031F49F3F11F41EF46FC10EF4E095E7FB93
:101AB0003CC1E92F8BD180F3BA1762077307840703
:101AC000950718F071F49EF5BAC10EF4E0950B2E4F
:101AD000BA2FA02D0B01B90190010C01CA01A00180
:101AE0001124FF27591B99F0593F50F4503E68F1DB
:101AF0001A16F040A22F232F342F4427585FF3CF1C
:101B0000469537952795A795F0405395C9F77EF4EC
:101B10001F16BA0B620B730B840BBAF09150A1F035
:101B2000FF0FBB1F661F771F881FC2F70EC0BA0FBB
:101B3000621F731F841F48F4879577956795B79543
:101B4000F7959E3F08F0B3CF9395880F08F099273B
:101B5000EE0F9795879508950CD027C11FD140F0BF
:101B600016D130F021F45F3F19F0DFC0511168C188
:101B70000BC12CD198F39923C9F35523B1F3951BCD
:101B8000550BBB27AA2762177307840738F09F5F9E
:101B90005F4F220F331F441FAA1FA9F333D00E2E0D
:101BA0003AF0E0E830D091505040E695001CCAF77A
:101BB00029D0FE2F27D0660F771F881FBB1F26173F
:101BC00037074807AB07B0E809F0BB0B802DBF0112
:101BD000FF2793585F4F2AF09E3F510568F0A5C03C
:101BE0002FC15F3FECF3983EDCF3869577956795C0
:101BF000B795F7959F5FC9F7880F911D96958795C3
:101C000097F90895E1E0660F771F881FBB1F6217E1
:101C100073078407BA0720F0621B730B840BBA0B9F
:101C2000EE1F88F7E095089504D06894B11108C1BB
:101C30000895D4D088F09F5790F0B92F9927B751C5
:101C4000A0F0D1F0660F771F881F991F1AF0BA9580
:101C5000C9F712C0B13081F0F2D0B1E00895EFC001
:101C6000672F782F8827B85F39F0B93FCCF3869576
:101C700077956795B395D9F73EF4909580957095D3
:101C800061957F4F8F4F9F4F0895E89409C097FB50
:101C90003EF490958095709561957F4F8F4F9F4F43
:101CA0009923A9F0F92F96E9BB279395F695879587
:101CB00077956795B795F111F8CFFAF4BB0F11F44A
:101CC00060FF1BC06F5F7F4F8F4F9F4F16C08823F1
:101CD00011F096E911C0772321F09EE8872F762F27
:101CE00005C0662371F096E8862F70E060E02AF068
:101CF0009A95660F771F881FDAF7880F9695879554
:101D000097F9089585D080F09F3740F491110EF037
:101D100097C060E070E080E89FEB089526F41B1602
:101D2000611D711D811D07C021C097F99F6780E863
:101D300070E060E00895882371F4772321F09850D3
:101D4000872B762F07C0662311F499270DC0905179
:101D5000862B70E060E02AF09A95660F771F881F47
:101D6000DAF7880F9695879597F908959F3F31F098
:101D7000915020F4879577956795B795880F911DB9
:101D80009695879597F908959FEF80EC0895002424
:101D90000A941616170618060906089500240A94D0
:101DA00012161306140605060895092E0394000C56
:101DB00011F4882352F0BB0F40F4BF2B11F460FFE5
:101DC00004C06F5F7F4F8F4F9F4F089557FD90580E
:101DD000440F551F59F05F3F71F04795880F97FBEF
:101DE000991F61F09F3F79F08795089512161306A9
:101DF0001406551FF2CF4695F1DF08C016161706D8
:101E00001806991FF1CF869571056105089408950C
:101E1000E5DFA0F0BEE7B91788F4BB279F3860F470
:101E20001616B11D672F782F8827985FF7CF8695F4
:101E300077956795B11D93959639C8F30895E89401
:101E4000BB2766277727CB0197F9089597FB092EC3
:101E500007260AD077FD04D043D006D000201AF41C
:101E6000709561957F4F0895F6F7909581959F4FF6
:101E700008952F923F924F925F926F927F928F922E
:101E80009F92AF92BF92CF92DF92EF92FF920F9309
:101E90001F93CF93DF93CDB7DEB7CA1BDB0B0FB613
:101EA000F894DEBF0FBECDBF09942A8839884888D0
:101EB0005F846E847D848C849B84AA84B984C88466
:101EC000DF80EE80FD800C811B81AA81B981CE0F5D
:101ED000D11D0FB6F894DEBF0FBECDBFED01089542
:101EE000AA1BBB1B51E107C0AA1FBB1FA617B70740
:101EF00010F0A61BB70B881F991F5A95A9F780955C
:101F00009095BC01CD010895662777270C945A114E
:101F1000FC0188279927E89421912032E9F32930A0
:101F200010F02E30C8F32B3241F02D3239F4689482
:101F300004C00E94A410820F911D219120532A30C9
:101F4000C0F31EF4909581959F4F0895283008F0B6
:101F500027E03327DA01990F311D87FD9160009644
:101F60006105710539F432602E5F3D9330E32A95A7
:101F7000E1F708959F3F30F080387105610509F061
:101F80003C5F3C5F3D93913008F08068911DDF938A
:101F9000CF931F930F93FF92EF92192F987F9695EF
:101FA000E92F96959695E90FFF27EA54FF4F992759
:101FB0003327EE24FF24A701E70105900894079436
:101FC00028F4360FE71EF81E491F511D660F771FB4
:101FD000881F991F0694A1F70590079428F4E70E2F
:101FE000F81E491F561FC11D770F881F991F661FB6
:101FF0000694A1F70590079428F4F80E491F561F80
:10200000C71FD11D880F991F661F771F0694A1F760
:102010000590079420F4490F561FC71FD81F990F2A
:10202000661F771F881F0694A9F784911095177073
:1020300041F0D695C79557954795F794E7941A952B
:10204000C1F7ECE5F0E06894159015913591659134
:10205000959105907FE27395E118F10A430B560BB9
:10206000C90BD009C0F7E10CF11E431F561FC91F51
:10207000D01D7EF4703311F48A95E6CFE8940150B8
:1020800030F0080F0AF40027021708F4202F2395D8
:10209000022F7A3328F079E37D932A95E9F710C06F
:1020A0007D932A9589F606949795679537951795A8
:1020B0001794E118F10A430B560BC90BD00998F09D
:1020C00023957E9173957A3308F070E37C93201307
:1020D000B8F77E9170617D9330F0839571E37D93C5
:1020E00070E32A95E1F71124EF90FF900F911F9173
:1020F000CF91DF91992787FD90950895FC01059078
:10210000615070400110D8F7809590958E0F9F1FF9
:102110000895FB01DC018D91019080190110D9F324
:10212000990B0895FB01DC0101900D920020E1F76D
:102130000895FC016150704001900110D8F780951E
:1021400090958E0F9F1F08957AE0979F902D879FFF
:10215000802D910D112408950F931F93CF93DF933A
:102160008C01EB018B8181FF1BC082FF0DC02E8192
:102170003F818C819D812817390764F4E881F981BA
:102180000193F983E88306C0E885F985802F0995D6
:10219000892B31F48E819F8101969F838E8302C0AB
:1021A0000FEF1FEFC801DF91CF911F910F9108959D
:1021B000AEE0B0E0EEEDF0E10C94470F0D891E8922
:1021C00086E08C831A8309838FEF9FE79E838D833C
:1021D0009E01275E3F4FCE0101966F89788DA90140
:1021E0000E94C0092F813885020F131FF801108249
:1021F0002E96E4E00C94630FFA01AA27283051F1DF
:10220000203181F1E8946F936E7F6E5F7F4F8F4F27
:102210009F4FAF4FB1E03ED0B4E03CD0670F781F86
:10222000891F9A1FA11D680F791F8A1F911DA11D6B
:102230006A0F711D811D911DA11D20D009F46894A4
:102240003F912AE0269F11243019305D3193DEF64C
:10225000CF010895462F4770405D4193B3E00FD002
:10226000C9F7F6CF462F4F70405D4A3318F0495DED
:1022700031FD4052419302D0A9F7EACFB4E0A695D0
:102280009795879577956795BA95C9F700976105F2
:10229000710508959B01AC010A2E06945795479548
:1022A00037952795BA95C9F7620F731F841F951F3D
:1022B000A01D0895A0E0B0E0E0E6F1E10C943F0F2E
:1022C000EC015B016115710519F0FB0191838083BD
:1022D000F9908F2D90E00E94BA12892BC9F7FDE288
:1022E000FF1621F4F990EE24E39405C02BE2F216D8
:1022F00009F4F990EE248E0101501040C80166E502
:1023000071E043E050E00E94C212892B01F58E017A
:102310000E5F1F4FC80169E571E045E050E00E9483
:10232000C212892B19F48E01095F1F4FA114B10449
:1023300019F0F50111830083E0FC04C070E090E027
:1023400080E814C070E090E080E86FEF08C1C80139
:102350006EE571E043E050E00E94C212892B69F4FF
:10236000A114B10429F470E090E080EC6FE7F7C0AD
:102370002296F501D183C083F6CF8824992440E0CA
:1023800050E060E070E0EF2DE053EA30A0F5F2E0BD
:10239000EF2A8E2D90E09C0128703070E2FE06C07E
:1023A000232B79F50894811C911C2BC0232B19F049
:1023B000089481089108DB01CA0112E0880F991F77
:1023C000AA1FBB1F1A95D1F7480F591F6A1F7B1F01
:1023D000440F551F661F771F4E0F511D611D711D44
:1023E000483929E9520729E9620729E1720748F0CB
:1023F00084E0E82A06C0EE3F31F4E3FC39C098E0FF
:10240000E92AF990C0CFE53311F0E53189F529913A
:102410002D3219F4E0E1EE2A05C02B3219F081E0EB
:1024200090E003C0299182E090E0E22FE053EA308F
:1024300018F0C81BD90B1CC020E030E0FCE02038AD
:102440003F075CF4C901880F991F880F991F280F57
:10245000391F220F331F2E0F311DE991E053EA304F
:1024600068F3E4FE03C0309521953F4F820E931E22
:10247000CE2CDD24E1FE07C0A114B10421F0219788
:10248000F501D183C083CB01BA010E94450E7B01C7
:102490008C01F3E0CF22DD2423E0C216D10421F425
:1024A00017FB109517F9109557016801C801B7017E
:1024B00020E030E040E050E00E94DA12882309F486
:1024C0004AC097FE0DC025E7E22E21E0F22E90943F
:1024D000819491089394C0E2D0E000E010E012C033
:1024E0009DE8E92E91E0F92EF6CFF701259135917F
:1024F00045915491C601B5010E9402135B016C0124
:102500008C1A9D0A8C169D0684F7D595C7950F5F8A
:102510001F4F0630110529F08CEF9FEFE80EF91ED2
:10252000F1CFC501D6017C018D018C2D880F8D2D39
:10253000881F8F3F51F0C601B50120E030E040E038
:1025400050E00E94DA12882331F482E290E0909306
:102550007103809370037E2D9F2D802F612F272F75
:10256000392F482F562FB901CA01CDB7DEB7ECE09D
:102570000C945B0F9111A9C0803219F089508550DD
:10258000D0F70895FB01DC014150504088F08D9157
:1025900081341CF08B350CF4805E659161341CF045
:1025A0006B350CF4605E861B611171F3990B089515
:1025B000881BFCCF03D008F481E00895990F000830
:1025C000550FAA0BE0E8FEEF16161706E807F90705
:1025D000C0F012161306E407F50798F0621B730BA0
:1025E000840B950B39F40A2661F0232B242B252B21
:1025F00021F408950A2609F4A140A6958FEF811DC4
:10260000811D08950BD0D1CBC2DB28F0C7DB18F0B9
:10261000952309F08ACBB8CB112412CCD7DBA0F3D9
:10262000959FD1F3950F50E0551F629FF001729F67
:10263000BB27F00DB11D639FAA27F00DB11DAA1F86
:10264000649F6627B00DA11D661F829F2227B00DD3
:10265000A11D621F739FB00DA11D621F839FA00D5E
:10266000611D221F749F3327A00D611D231F849FAE
:10267000600D211D822F762F6A2F11249F57504005
:102680008AF0E1F088234AF0EE0FFF1FBB1F661FA0
:10269000771F881F91505040A9F79E3F510570F059
:1026A00044CBCECB5F3FECF3983EDCF38695779539
:1026B0006795B795F795E7959F5FC1F7FE2B880F54
:1026C000911D9695879597F90895992788270895DC
:0426D000F894FFCFAC
:1026D400010020004750524D4300475047474100F6
:1026E400252E326600253264256325362E3466276E
:1026F400257300536174733A25640025392E3766B7
:102704002563257300257325342E31666D002573EA
:1027140025342E3166256300410059004E003025D2
:10272400643A3025642573003025643A25642573A2
:102734000025643A30256425730025643A25642510
:1027440073004C61743A004C6F6E3A0053617473B9
:102754003A005370643A004669783A00DF48656489
:062764003A00413A0000BA
:00000001FF
